:1000000071C0000081C000007FC000007DC0000002
:100010007BC0000079C0000077C0000075C0000000
:1000200073C0000071C000006FC000006DC0000010
:100030006BC0000069C0000067C0000065C0000020
:1000400063C0000062C000005FC000005DC000002F
:100050005BC0000059C0000057C0000055C0000040
:1000600053C0000051C000004FC000004DC0000050
:100070004BC0000049C0000047C0000045C0000060
:1000800043C0000041C000003FC000003DC0000070
:100090003BC0000039C0000037C0000035C0000080
:1000A00033C0000031C000002FC000002DC0000090
:1000B0002BC0000029C0000027C0000025C00000A0
:1000C00023C0000021C000001FC000001DC00000B0
:1000D0001BC0000019C0000017C0000015C00000C0
:1000E00013C0000011241FBECFEFD1E2DEBFCDBF91
:1000F00000E00CBF22E0A0E0B2E001C01D92A230FF
:10010000B207E1F74BD054C07BCF1F920F920FB6CE
:100110000F9211248F939F9380910002909101027E
:1001200001979093010280930002809100029091C8
:100130000102892B79F484E690E090930102809388
:1001400000022F9B04C085B18F7785B903C085B1AC
:10015000806885B99F918F910F900FBE0F901F906F
:10016000189580E884B985B1806885B9089580EDD7
:1001700097E0909389008093880010928000E1E8D6
:10018000F0E01082109285001092840086B386BB46
:1001900082E080936F008AE08083089584E690E097
:1001A0009093010280930002DCDFE1DF7894FFCFBF
:0401B000F894FFCFF1
:00000001FF
